{
  "_format": "hh-sol-artifact-1",
  "contractName": "BountyRegistry",
  "sourceName": "contracts/BountyRegistry.sol",
  "abi": [
    {
      "inputs": [
        {
          "internalType": "address",
          "name": "escrowAddress",
          "type": "address"
        }
      ],
      "stateMutability": "nonpayable",
      "type": "constructor"
    },
    {
      "inputs": [],
      "name": "AccessControlBadConfirmation",
      "type": "error"
    },
    {
      "inputs": [
        {
          "internalType": "address",
          "name": "account",
          "type": "address"
        },
        {
          "internalType": "bytes32",
          "name": "neededRole",
          "type": "bytes32"
        }
      ],
      "name": "AccessControlUnauthorizedAccount",
      "type": "error"
    },
    {
      "anonymous": false,
      "inputs": [
        {
          "indexed": true,
          "internalType": "uint256",
          "name": "bountyId",
          "type": "uint256"
        },
        {
          "indexed": true,
          "internalType": "address",
          "name": "ngo",
          "type": "address"
        }
      ],
      "name": "BountyCreated",
      "type": "event"
    },
    {
      "anonymous": false,
      "inputs": [
        {
          "indexed": true,
          "internalType": "uint256",
          "name": "bountyId",
          "type": "uint256"
        },
        {
          "indexed": true,
          "internalType": "address",
          "name": "donor",
          "type": "address"
        },
        {
          "indexed": false,
          "internalType": "uint256",
          "name": "amount",
          "type": "uint256"
        }
      ],
      "name": "DonorFunded",
      "type": "event"
    },
    {
      "anonymous": false,
      "inputs": [
        {
          "indexed": true,
          "internalType": "address",
          "name": "donor",
          "type": "address"
        },
        {
          "indexed": false,
          "internalType": "string",
          "name": "cid",
          "type": "string"
        },
        {
          "indexed": false,
          "internalType": "bytes32",
          "name": "payloadHash",
          "type": "bytes32"
        }
      ],
      "name": "DonorRegistered",
      "type": "event"
    },
    {
      "anonymous": false,
      "inputs": [
        {
          "indexed": true,
          "internalType": "uint256",
          "name": "bountyId",
          "type": "uint256"
        },
        {
          "indexed": true,
          "internalType": "address",
          "name": "lawyer",
          "type": "address"
        },
        {
          "indexed": false,
          "internalType": "string",
          "name": "cid",
          "type": "string"
        },
        {
          "indexed": false,
          "internalType": "bytes32",
          "name": "payloadHash",
          "type": "bytes32"
        },
        {
          "indexed": false,
          "internalType": "string",
          "name": "docHash",
          "type": "string"
        }
      ],
      "name": "LawyerApplied",
      "type": "event"
    },
    {
      "anonymous": false,
      "inputs": [
        {
          "indexed": true,
          "internalType": "address",
          "name": "lawyer",
          "type": "address"
        },
        {
          "indexed": false,
          "internalType": "string",
          "name": "cid",
          "type": "string"
        },
        {
          "indexed": false,
          "internalType": "bytes32",
          "name": "payloadHash",
          "type": "bytes32"
        }
      ],
      "name": "LawyerRegistered",
      "type": "event"
    },
    {
      "anonymous": false,
      "inputs": [
        {
          "indexed": true,
          "internalType": "uint256",
          "name": "bountyId",
          "type": "uint256"
        },
        {
          "indexed": true,
          "internalType": "address",
          "name": "lawyer",
          "type": "address"
        },
        {
          "indexed": false,
          "internalType": "bytes32",
          "name": "payloadHash",
          "type": "bytes32"
        }
      ],
      "name": "LawyerSelected",
      "type": "event"
    },
    {
      "anonymous": false,
      "inputs": [
        {
          "indexed": true,
          "internalType": "uint256",
          "name": "bountyId",
          "type": "uint256"
        },
        {
          "indexed": false,
          "internalType": "uint256",
          "name": "milestoneId",
          "type": "uint256"
        },
        {
          "indexed": false,
          "internalType": "address",
          "name": "ngo",
          "type": "address"
        }
      ],
      "name": "MilestoneApprovalProposed",
      "type": "event"
    },
    {
      "anonymous": false,
      "inputs": [
        {
          "indexed": true,
          "internalType": "uint256",
          "name": "bountyId",
          "type": "uint256"
        },
        {
          "indexed": false,
          "internalType": "uint256",
          "name": "milestoneId",
          "type": "uint256"
        },
        {
          "indexed": false,
          "internalType": "address",
          "name": "steward",
          "type": "address"
        }
      ],
      "name": "MilestoneApproved",
      "type": "event"
    },
    {
      "anonymous": false,
      "inputs": [
        {
          "indexed": true,
          "internalType": "address",
          "name": "ngo",
          "type": "address"
        },
        {
          "indexed": false,
          "internalType": "string",
          "name": "cid",
          "type": "string"
        },
        {
          "indexed": false,
          "internalType": "bytes32",
          "name": "payloadHash",
          "type": "bytes32"
        }
      ],
      "name": "NGORegistered",
      "type": "event"
    },
    {
      "anonymous": false,
      "inputs": [
        {
          "indexed": true,
          "internalType": "bytes32",
          "name": "role",
          "type": "bytes32"
        },
        {
          "indexed": true,
          "internalType": "bytes32",
          "name": "previousAdminRole",
          "type": "bytes32"
        },
        {
          "indexed": true,
          "internalType": "bytes32",
          "name": "newAdminRole",
          "type": "bytes32"
        }
      ],
      "name": "RoleAdminChanged",
      "type": "event"
    },
    {
      "anonymous": false,
      "inputs": [
        {
          "indexed": true,
          "internalType": "bytes32",
          "name": "role",
          "type": "bytes32"
        },
        {
          "indexed": true,
          "internalType": "address",
          "name": "account",
          "type": "address"
        },
        {
          "indexed": true,
          "internalType": "address",
          "name": "sender",
          "type": "address"
        }
      ],
      "name": "RoleGranted",
      "type": "event"
    },
    {
      "anonymous": false,
      "inputs": [
        {
          "indexed": true,
          "internalType": "bytes32",
          "name": "role",
          "type": "bytes32"
        },
        {
          "indexed": true,
          "internalType": "address",
          "name": "account",
          "type": "address"
        },
        {
          "indexed": true,
          "internalType": "address",
          "name": "sender",
          "type": "address"
        }
      ],
      "name": "RoleRevoked",
      "type": "event"
    },
    {
      "inputs": [],
      "name": "ADMIN_ROLE",
      "outputs": [
        {
          "internalType": "bytes32",
          "name": "",
          "type": "bytes32"
        }
      ],
      "stateMutability": "view",
      "type": "function"
    },
    {
      "inputs": [],
      "name": "CASE_STEWARD_ROLE",
      "outputs": [
        {
          "internalType": "bytes32",
          "name": "",
          "type": "bytes32"
        }
      ],
      "stateMutability": "view",
      "type": "function"
    },
    {
      "inputs": [],
      "name": "DEFAULT_ADMIN_ROLE",
      "outputs": [
        {
          "internalType": "bytes32",
          "name": "",
          "type": "bytes32"
        }
      ],
      "stateMutability": "view",
      "type": "function"
    },
    {
      "inputs": [],
      "name": "DONOR_ROLE",
      "outputs": [
        {
          "internalType": "bytes32",
          "name": "",
          "type": "bytes32"
        }
      ],
      "stateMutability": "view",
      "type": "function"
    },
    {
      "inputs": [],
      "name": "LAWYER_ROLE",
      "outputs": [
        {
          "internalType": "bytes32",
          "name": "",
          "type": "bytes32"
        }
      ],
      "stateMutability": "view",
      "type": "function"
    },
    {
      "inputs": [],
      "name": "NGO_ROLE",
      "outputs": [
        {
          "internalType": "bytes32",
          "name": "",
          "type": "bytes32"
        }
      ],
      "stateMutability": "view",
      "type": "function"
    },
    {
      "inputs": [
        {
          "internalType": "uint256",
          "name": "",
          "type": "uint256"
        },
        {
          "internalType": "uint256",
          "name": "",
          "type": "uint256"
        }
      ],
      "name": "applications",
      "outputs": [
        {
          "internalType": "address",
          "name": "lawyer",
          "type": "address"
        },
        {
          "internalType": "string",
          "name": "proposalURI",
          "type": "string"
        },
        {
          "internalType": "string",
          "name": "docHash",
          "type": "string"
        },
        {
          "internalType": "bool",
          "name": "accepted",
          "type": "bool"
        }
      ],
      "stateMutability": "view",
      "type": "function"
    },
    {
      "inputs": [
        {
          "internalType": "uint256",
          "name": "bountyId",
          "type": "uint256"
        },
        {
          "internalType": "string",
          "name": "proposalURI",
          "type": "string"
        },
        {
          "internalType": "string",
          "name": "docHash",
          "type": "string"
        }
      ],
      "name": "applyForBounty",
      "outputs": [],
      "stateMutability": "nonpayable",
      "type": "function"
    },
    {
      "inputs": [
        {
          "internalType": "uint256",
          "name": "bountyId",
          "type": "uint256"
        },
        {
          "internalType": "uint256",
          "name": "milestoneId",
          "type": "uint256"
        }
      ],
      "name": "approveMilestone",
      "outputs": [],
      "stateMutability": "nonpayable",
      "type": "function"
    },
    {
      "inputs": [
        {
          "internalType": "uint256",
          "name": "",
          "type": "uint256"
        }
      ],
      "name": "bounties",
      "outputs": [
        {
          "internalType": "uint256",
          "name": "id",
          "type": "uint256"
        },
        {
          "internalType": "address",
          "name": "ngo",
          "type": "address"
        },
        {
          "internalType": "address",
          "name": "assignedLawyer",
          "type": "address"
        },
        {
          "internalType": "bool",
          "name": "active",
          "type": "bool"
        },
        {
          "internalType": "bool",
          "name": "lawyerSelected",
          "type": "bool"
        }
      ],
      "stateMutability": "view",
      "type": "function"
    },
    {
      "inputs": [
        {
          "internalType": "uint256[]",
          "name": "milestoneAmounts",
          "type": "uint256[]"
        }
      ],
      "name": "createBounty",
      "outputs": [
        {
          "internalType": "uint256",
          "name": "",
          "type": "uint256"
        }
      ],
      "stateMutability": "nonpayable",
      "type": "function"
    },
    {
      "inputs": [
        {
          "internalType": "uint256",
          "name": "",
          "type": "uint256"
        },
        {
          "internalType": "address",
          "name": "",
          "type": "address"
        }
      ],
      "name": "donorContributions",
      "outputs": [
        {
          "internalType": "uint256",
          "name": "",
          "type": "uint256"
        }
      ],
      "stateMutability": "view",
      "type": "function"
    },
    {
      "inputs": [
        {
          "internalType": "address",
          "name": "",
          "type": "address"
        }
      ],
      "name": "donorIdentities",
      "outputs": [
        {
          "internalType": "string",
          "name": "cid",
          "type": "string"
        },
        {
          "internalType": "bytes32",
          "name": "payloadHash",
          "type": "bytes32"
        }
      ],
      "stateMutability": "view",
      "type": "function"
    },
    {
      "inputs": [],
      "name": "escrow",
      "outputs": [
        {
          "internalType": "contract IBountyEscrow",
          "name": "",
          "type": "address"
        }
      ],
      "stateMutability": "view",
      "type": "function"
    },
    {
      "inputs": [
        {
          "internalType": "uint256",
          "name": "bountyId",
          "type": "uint256"
        },
        {
          "internalType": "uint256",
          "name": "amount",
          "type": "uint256"
        }
      ],
      "name": "fundBounty",
      "outputs": [],
      "stateMutability": "nonpayable",
      "type": "function"
    },
    {
      "inputs": [],
      "name": "getAllBounties",
      "outputs": [
        {
          "components": [
            {
              "internalType": "uint256",
              "name": "id",
              "type": "uint256"
            },
            {
              "internalType": "address",
              "name": "ngo",
              "type": "address"
            },
            {
              "internalType": "address",
              "name": "assignedLawyer",
              "type": "address"
            },
            {
              "internalType": "bool",
              "name": "active",
              "type": "bool"
            },
            {
              "internalType": "bool",
              "name": "lawyerSelected",
              "type": "bool"
            }
          ],
          "internalType": "struct IBountyRegistry.Bounty[]",
          "name": "",
          "type": "tuple[]"
        }
      ],
      "stateMutability": "view",
      "type": "function"
    },
    {
      "inputs": [
        {
          "internalType": "address[]",
          "name": "lawyers",
          "type": "address[]"
        }
      ],
      "name": "getAllLawyerIdentities",
      "outputs": [
        {
          "internalType": "string[]",
          "name": "cids",
          "type": "string[]"
        },
        {
          "internalType": "bytes32[]",
          "name": "payloads",
          "type": "bytes32[]"
        }
      ],
      "stateMutability": "view",
      "type": "function"
    },
    {
      "inputs": [
        {
          "internalType": "uint256",
          "name": "bountyId",
          "type": "uint256"
        }
      ],
      "name": "getAllMilestones",
      "outputs": [
        {
          "components": [
            {
              "internalType": "uint256",
              "name": "amount",
              "type": "uint256"
            },
            {
              "internalType": "bool",
              "name": "approved",
              "type": "bool"
            },
            {
              "internalType": "bool",
              "name": "released",
              "type": "bool"
            }
          ],
          "internalType": "struct IBountyRegistry.Milestone[]",
          "name": "",
          "type": "tuple[]"
        }
      ],
      "stateMutability": "view",
      "type": "function"
    },
    {
      "inputs": [
        {
          "internalType": "uint256",
          "name": "bountyId",
          "type": "uint256"
        }
      ],
      "name": "getApplications",
      "outputs": [
        {
          "components": [
            {
              "internalType": "address",
              "name": "lawyer",
              "type": "address"
            },
            {
              "internalType": "string",
              "name": "proposalURI",
              "type": "string"
            },
            {
              "internalType": "string",
              "name": "docHash",
              "type": "string"
            },
            {
              "internalType": "bool",
              "name": "accepted",
              "type": "bool"
            }
          ],
          "internalType": "struct IBountyRegistry.LawyerApplication[]",
          "name": "",
          "type": "tuple[]"
        }
      ],
      "stateMutability": "view",
      "type": "function"
    },
    {
      "inputs": [
        {
          "internalType": "uint256",
          "name": "bountyId",
          "type": "uint256"
        }
      ],
      "name": "getBounty",
      "outputs": [
        {
          "components": [
            {
              "internalType": "uint256",
              "name": "id",
              "type": "uint256"
            },
            {
              "internalType": "address",
              "name": "ngo",
              "type": "address"
            },
            {
              "internalType": "address",
              "name": "assignedLawyer",
              "type": "address"
            },
            {
              "internalType": "bool",
              "name": "active",
              "type": "bool"
            },
            {
              "internalType": "bool",
              "name": "lawyerSelected",
              "type": "bool"
            }
          ],
          "internalType": "struct IBountyRegistry.Bounty",
          "name": "",
          "type": "tuple"
        }
      ],
      "stateMutability": "view",
      "type": "function"
    },
    {
      "inputs": [
        {
          "internalType": "uint256",
          "name": "bountyId",
          "type": "uint256"
        },
        {
          "internalType": "address",
          "name": "donor",
          "type": "address"
        }
      ],
      "name": "getDonorContribution",
      "outputs": [
        {
          "internalType": "uint256",
          "name": "",
          "type": "uint256"
        }
      ],
      "stateMutability": "view",
      "type": "function"
    },
    {
      "inputs": [
        {
          "internalType": "address",
          "name": "donor",
          "type": "address"
        }
      ],
      "name": "getDonorIdentity",
      "outputs": [
        {
          "internalType": "string",
          "name": "cid",
          "type": "string"
        },
        {
          "internalType": "bytes32",
          "name": "payloadHash",
          "type": "bytes32"
        }
      ],
      "stateMutability": "view",
      "type": "function"
    },
    {
      "inputs": [
        {
          "internalType": "address",
          "name": "lawyer",
          "type": "address"
        }
      ],
      "name": "getLawyerIdentity",
      "outputs": [
        {
          "internalType": "string",
          "name": "cid",
          "type": "string"
        },
        {
          "internalType": "bytes32",
          "name": "payloadHash",
          "type": "bytes32"
        }
      ],
      "stateMutability": "view",
      "type": "function"
    },
    {
      "inputs": [
        {
          "internalType": "uint256",
          "name": "bountyId",
          "type": "uint256"
        },
        {
          "internalType": "uint256",
          "name": "milestoneId",
          "type": "uint256"
        }
      ],
      "name": "getMilestone",
      "outputs": [
        {
          "components": [
            {
              "internalType": "uint256",
              "name": "amount",
              "type": "uint256"
            },
            {
              "internalType": "bool",
              "name": "approved",
              "type": "bool"
            },
            {
              "internalType": "bool",
              "name": "released",
              "type": "bool"
            }
          ],
          "internalType": "struct IBountyRegistry.Milestone",
          "name": "",
          "type": "tuple"
        }
      ],
      "stateMutability": "view",
      "type": "function"
    },
    {
      "inputs": [
        {
          "internalType": "address",
          "name": "ngo",
          "type": "address"
        }
      ],
      "name": "getNGOIdentity",
      "outputs": [
        {
          "internalType": "string",
          "name": "cid",
          "type": "string"
        },
        {
          "internalType": "bytes32",
          "name": "payloadHash",
          "type": "bytes32"
        }
      ],
      "stateMutability": "view",
      "type": "function"
    },
    {
      "inputs": [
        {
          "internalType": "bytes32",
          "name": "role",
          "type": "bytes32"
        }
      ],
      "name": "getRoleAdmin",
      "outputs": [
        {
          "internalType": "bytes32",
          "name": "",
          "type": "bytes32"
        }
      ],
      "stateMutability": "view",
      "type": "function"
    },
    {
      "inputs": [
        {
          "internalType": "uint256",
          "name": "bountyId",
          "type": "uint256"
        }
      ],
      "name": "getTotalContributions",
      "outputs": [
        {
          "internalType": "uint256",
          "name": "",
          "type": "uint256"
        }
      ],
      "stateMutability": "view",
      "type": "function"
    },
    {
      "inputs": [
        {
          "internalType": "bytes32",
          "name": "role",
          "type": "bytes32"
        },
        {
          "internalType": "address",
          "name": "account",
          "type": "address"
        }
      ],
      "name": "grantRole",
      "outputs": [],
      "stateMutability": "nonpayable",
      "type": "function"
    },
    {
      "inputs": [
        {
          "internalType": "bytes32",
          "name": "role",
          "type": "bytes32"
        },
        {
          "internalType": "address",
          "name": "account",
          "type": "address"
        }
      ],
      "name": "hasRole",
      "outputs": [
        {
          "internalType": "bool",
          "name": "",
          "type": "bool"
        }
      ],
      "stateMutability": "view",
      "type": "function"
    },
    {
      "inputs": [
        {
          "internalType": "address",
          "name": "",
          "type": "address"
        }
      ],
      "name": "lawyerIdentities",
      "outputs": [
        {
          "internalType": "string",
          "name": "cid",
          "type": "string"
        },
        {
          "internalType": "bytes32",
          "name": "payloadHash",
          "type": "bytes32"
        }
      ],
      "stateMutability": "view",
      "type": "function"
    },
    {
      "inputs": [
        {
          "internalType": "uint256",
          "name": "",
          "type": "uint256"
        },
        {
          "internalType": "uint256",
          "name": "",
          "type": "uint256"
        }
      ],
      "name": "milestoneProposals",
      "outputs": [
        {
          "internalType": "bool",
          "name": "",
          "type": "bool"
        }
      ],
      "stateMutability": "view",
      "type": "function"
    },
    {
      "inputs": [
        {
          "internalType": "uint256",
          "name": "",
          "type": "uint256"
        },
        {
          "internalType": "uint256",
          "name": "",
          "type": "uint256"
        }
      ],
      "name": "milestones",
      "outputs": [
        {
          "internalType": "uint256",
          "name": "amount",
          "type": "uint256"
        },
        {
          "internalType": "bool",
          "name": "approved",
          "type": "bool"
        },
        {
          "internalType": "bool",
          "name": "released",
          "type": "bool"
        }
      ],
      "stateMutability": "view",
      "type": "function"
    },
    {
      "inputs": [],
      "name": "nextBountyId",
      "outputs": [
        {
          "internalType": "uint256",
          "name": "",
          "type": "uint256"
        }
      ],
      "stateMutability": "view",
      "type": "function"
    },
    {
      "inputs": [
        {
          "internalType": "address",
          "name": "",
          "type": "address"
        }
      ],
      "name": "ngoIdentities",
      "outputs": [
        {
          "internalType": "string",
          "name": "cid",
          "type": "string"
        },
        {
          "internalType": "bytes32",
          "name": "payloadHash",
          "type": "bytes32"
        }
      ],
      "stateMutability": "view",
      "type": "function"
    },
    {
      "inputs": [
        {
          "internalType": "uint256",
          "name": "bountyId",
          "type": "uint256"
        },
        {
          "internalType": "uint256",
          "name": "milestoneId",
          "type": "uint256"
        }
      ],
      "name": "proposeMilestoneApproval",
      "outputs": [],
      "stateMutability": "nonpayable",
      "type": "function"
    },
    {
      "inputs": [
        {
          "internalType": "string",
          "name": "cid",
          "type": "string"
        },
        {
          "internalType": "bytes32",
          "name": "payloadHash",
          "type": "bytes32"
        }
      ],
      "name": "registerDonor",
      "outputs": [],
      "stateMutability": "nonpayable",
      "type": "function"
    },
    {
      "inputs": [
        {
          "internalType": "string",
          "name": "cid",
          "type": "string"
        },
        {
          "internalType": "bytes32",
          "name": "payloadHash",
          "type": "bytes32"
        }
      ],
      "name": "registerLawyer",
      "outputs": [],
      "stateMutability": "nonpayable",
      "type": "function"
    },
    {
      "inputs": [
        {
          "internalType": "string",
          "name": "cid",
          "type": "string"
        },
        {
          "internalType": "bytes32",
          "name": "payloadHash",
          "type": "bytes32"
        }
      ],
      "name": "registerNGO",
      "outputs": [],
      "stateMutability": "nonpayable",
      "type": "function"
    },
    {
      "inputs": [
        {
          "internalType": "bytes32",
          "name": "role",
          "type": "bytes32"
        },
        {
          "internalType": "address",
          "name": "callerConfirmation",
          "type": "address"
        }
      ],
      "name": "renounceRole",
      "outputs": [],
      "stateMutability": "nonpayable",
      "type": "function"
    },
    {
      "inputs": [
        {
          "internalType": "bytes32",
          "name": "role",
          "type": "bytes32"
        },
        {
          "internalType": "address",
          "name": "account",
          "type": "address"
        }
      ],
      "name": "revokeRole",
      "outputs": [],
      "stateMutability": "nonpayable",
      "type": "function"
    },
    {
      "inputs": [
        {
          "internalType": "uint256",
          "name": "bountyId",
          "type": "uint256"
        },
        {
          "internalType": "address",
          "name": "lawyer",
          "type": "address"
        }
      ],
      "name": "selectLawyer",
      "outputs": [],
      "stateMutability": "nonpayable",
      "type": "function"
    },
    {
      "inputs": [
        {
          "internalType": "address",
          "name": "escrowAddress",
          "type": "address"
        }
      ],
      "name": "setEscrow",
      "outputs": [],
      "stateMutability": "nonpayable",
      "type": "function"
    },
    {
      "inputs": [
        {
          "internalType": "bytes4",
          "name": "interfaceId",
          "type": "bytes4"
        }
      ],
      "name": "supportsInterface",
      "outputs": [
        {
          "internalType": "bool",
          "name": "",
          "type": "bool"
        }
      ],
      "stateMutability": "view",
      "type": "function"
    },
    {
      "inputs": [
        {
          "internalType": "uint256",
          "name": "",
          "type": "uint256"
        }
      ],
      "name": "totalContributions",
      "outputs": [
        {
          "internalType": "uint256",
          "name": "",
          "type": "uint256"
        }
      ],
      "stateMutability": "view",
      "type": "function"
    }
  ],
  "bytecode": "0x60806040526001805534801561001457600080fd5b50604051612e30380380612e3083398101604081905261003391610147565b61003e60003361009b565b506100697fa49807205ce4d355092ef5a8a18f56e8913cf4a201fbe287825b095693c217753361009b565b506001600160a01b0381161561009557600b80546001600160a01b0319166001600160a01b0383161790555b50610177565b6000828152602081815260408083206001600160a01b038516845290915281205460ff1661013d576000838152602081815260408083206001600160a01b03861684529091529020805460ff191660011790556100f53390565b6001600160a01b0316826001600160a01b0316847f2f8788117e7eff1d82e926ec794901d17c78024a50270940304540a733656f0d60405160405180910390a4506001610141565b5060005b92915050565b60006020828403121561015957600080fd5b81516001600160a01b038116811461017057600080fd5b9392505050565b612caa806101866000396000f3fe608060405234801561001057600080fd5b50600436106102745760003560e01c80639e538d4a11610151578063d4d70128116100c3578063e6a366c511610087578063e6a366c5146106ef578063ee8c4bbf14610716578063f10a6dfc146107c6578063f346e4ea146107db578063fb7c105a146107ee578063fd14fad41461080f57600080fd5b8063d4d70128146105f5578063d547741f14610615578063d68188f914610628578063dc2f87441461063b578063e2fdcc17146106c457600080fd5b8063aedf72b311610115578063aedf72b314610574578063b1a64f7214610587578063bc8c937d1461059a578063c10c3546146105ba578063c864be8a146105cd578063cf27e65e146105e257600080fd5b80639e538d4a146104ee578063a0b2389b14610501578063a1be44e014610521578063a217fddf14610557578063ab643c071461055f57600080fd5b80635bd1baaf116101ea5780637e56cc74116101ae5780637e56cc74146104525780638549fb25146104655780638ec6269e146104935780638ed9895c146104a8578063902ef687146104c857806391d14854146104db57600080fd5b80635bd1baaf146103c25780635c20be88146103e25780635da0fce7146103f557806375b238fc146104085780637a870b631461042f57600080fd5b8063248a9ca31161023c578063248a9ca31461031a5780632f2ff15d1461034b5780632f6291691461035e57806336568abe146103715780633e2f29151461038457806347cdcf94146103af57600080fd5b806301ffc9a7146102795780630da3aca9146102a157806315dbfc7b146102c25780631c376c63146102d757806320913da514610307575b600080fd5b61028c6102873660046123c3565b610818565b60405190151581526020015b60405180910390f35b6102b46102af366004612410565b61084f565b604051610298929190612471565b6102d56102d03660046124dc565b610932565b005b6102ea6102e5366004612528565b610a62565b604080519384529115156020840152151590820152606001610298565b6102d5610315366004612528565b610aaa565b61033d61032836600461254a565b60009081526020819052604090206001015490565b604051908152602001610298565b6102d5610359366004612563565b610c08565b6102b461036c366004612410565b610c33565b6102d561037f366004612563565b610cd7565b61033d610392366004612563565b600960209081526000928352604080842090915290825290205481565b6102b46103bd366004612410565b610d0f565b61033d6103d036600461254a565b6000908152600a602052604090205490565b6102d56103f0366004612528565b610d2a565b6102b4610403366004612410565b610f00565b61033d7fa49807205ce4d355092ef5a8a18f56e8913cf4a201fbe287825b095693c2177581565b61044261043d366004612528565b610f45565b604051610298949392919061258f565b6102d5610460366004612563565b6110ac565b61028c610473366004612528565b600560209081526000928352604080842090915290825290205460ff1681565b61033d600080516020612c1583398151915281565b6104bb6104b6366004612528565b6112c0565b60405161029891906125d9565b6102d56104d6366004612528565b611349565b61028c6104e9366004612563565b611438565b61033d6104fc366004612643565b611461565b61051461050f36600461254a565b6116f3565b6040516102989190612685565b61033d61052f366004612563565b60009182526009602090815260408084206001600160a01b0393909316845291905290205490565b61033d600081565b610567611789565b604051610298919061272d565b6102d56105823660046124dc565b6118b9565b6102b4610595366004612410565b6119d3565b6105ad6105a836600461254a565b6119ee565b6040516102989190612770565b6102d56105c8366004612410565b611ba1565b61033d600080516020612c3583398151915281565b6102b46105f0366004612410565b611c3c565b61033d61060336600461254a565b600a6020526000908152604090205481565b6102d5610623366004612563565b611c81565b6102d56106363660046124dc565b611ca6565b61068c61064936600461254a565b60026020819052600091825260409091208054600182015491909201546001600160a01b039182169181169060ff600160a01b8204811691600160a81b90041685565b604080519586526001600160a01b0394851660208701529290931691840191909152151560608301521515608082015260a001610298565b600b546106d7906001600160a01b031681565b6040516001600160a01b039091168152602001610298565b61033d7faf3776edc7dcbb646e3194c4267a84a79c10d0f649558713c6ae38f7ea38a12e81565b6107b961072436600461254a565b6040805160a08101825260008082526020820181905291810182905260608101829052608081019190915250600090815260026020818152604092839020835160a0810185528154815260018201546001600160a01b03908116938201939093529201549081169282019290925260ff600160a01b8304811615156060830152600160a81b9092049091161515608082015290565b604051610298919061281e565b61033d600080516020612c5583398151915281565b6102d56107e936600461282c565b611dc0565b6108016107fc366004612643565b61208f565b6040516102989291906128ab565b61033d60015481565b60006001600160e01b03198216637965db0b60e01b148061084957506301ffc9a760e01b6001600160e01b03198316145b92915050565b606060008060076000856001600160a01b03166001600160a01b031681526020019081526020016000206040518060400160405290816000820180546108949061294f565b80601f01602080910402602001604051908101604052809291908181526020018280546108c09061294f565b801561090d5780601f106108e25761010080835404028352916020019161090d565b820191906000526020600020905b8154815290600101906020018083116108f057829003601f168201915b5050509183525050600191909101546020918201528151910151909590945092505050565b816109585760405162461bcd60e51b815260040161094f90612983565b60405180910390fd5b806109755760405162461bcd60e51b815260040161094f906129a9565b6040805160606020601f8601819004028201810183529181018481529091829190869086908190850183828082843760009201829052509385525050506020918201849052338152600690915260409020815181906109d49082612a3b565b50602082015181600101559050506109fa600080516020612c1583398151915233611438565b610a1857610a16600080516020612c158339815191523361227c565b505b336001600160a01b03167ffb57a43192047f56e0b011338e3ec77b9782ae6c41af506917eafed2e8120075848484604051610a5593929190612b23565b60405180910390a2505050565b60036020528160005260406000208181548110610a7e57600080fd5b60009182526020909120600290910201805460019091015490925060ff80821692506101009091041683565b7faf3776edc7dcbb646e3194c4267a84a79c10d0f649558713c6ae38f7ea38a12e610ad48161230e565b600083815260056020908152604080832085845290915290205460ff16610b2f5760405162461bcd60e51b815260206004820152600f60248201526e139bc81391d3c81c1c9bdc1bdcd85b608a1b604482015260640161094f565b6000838152600360205260408120805484908110610b4f57610b4f612b47565b60009182526020909120600290910201600181015490915060ff1615610bb75760405162461bcd60e51b815260206004820152601a60248201527f4d696c6573746f6e6520616c726561647920617070726f766564000000000000604482015260640161094f565b6001818101805460ff191690911790556040805184815233602082015285917f9ffbb52f2a1362273cd74689a516ca4f52c4282dc13e2e68b7e0646a9a7af7a391015b60405180910390a250505050565b600082815260208190526040902060010154610c238161230e565b610c2d838361227c565b50505050565b600660205260009081526040902080548190610c4e9061294f565b80601f0160208091040260200160405190810160405280929190818152602001828054610c7a9061294f565b8015610cc75780601f10610c9c57610100808354040283529160200191610cc7565b820191906000526020600020905b815481529060010190602001808311610caa57829003601f168201915b5050505050908060010154905082565b6001600160a01b0381163314610d005760405163334bd91960e11b815260040160405180910390fd5b610d0a828261231b565b505050565b600760205260009081526040902080548190610c4e9061294f565b600080516020612c35833981519152610d428161230e565b60008211610d865760405162461bcd60e51b81526020600482015260116024820152700416d6f756e74206d757374206265203e3607c1b604482015260640161094f565b60008381526002602081905260409091200154600160a01b900460ff16610dbf5760405162461bcd60e51b815260040161094f90612b5d565b600b546001600160a01b0316610e085760405162461bcd60e51b815260206004820152600e60248201526d115cd8dc9bddc81b9bdd081cd95d60921b604482015260640161094f565b600083815260096020908152604080832033845290915281208054849290610e31908490612b9e565b90915550506000838152600a602052604081208054849290610e54908490612b9e565b9091555050600b5460405163bc157ac160e01b815260048101859052336024820152604481018490526001600160a01b039091169063bc157ac190606401600060405180830381600087803b158015610eac57600080fd5b505af1158015610ec0573d6000803e3d6000fd5b50506040518481523392508591507f2417d9f53227215cb9e39c496b40788a1a67115933ff4555fe2e089a77d6d25b9060200160405180910390a3505050565b606060008060066000856001600160a01b03166001600160a01b031681526020019081526020016000206040518060400160405290816000820180546108949061294f565b60046020528160005260406000208181548110610f6157600080fd5b6000918252602090912060049091020180546001820180546001600160a01b039092169450919250610f929061294f565b80601f0160208091040260200160405190810160405280929190818152602001828054610fbe9061294f565b801561100b5780601f10610fe05761010080835404028352916020019161100b565b820191906000526020600020905b815481529060010190602001808311610fee57829003601f168201915b5050505050908060020180546110209061294f565b80601f016020809104026020016040519081016040528092919081815260200182805461104c9061294f565b80156110995780601f1061106e57610100808354040283529160200191611099565b820191906000526020600020905b81548152906001019060200180831161107c57829003601f168201915b5050506003909301549192505060ff1684565b600080516020612c558339815191526110c48161230e565b600083815260026020819052604090912090810154600160a01b900460ff166110ff5760405162461bcd60e51b815260040161094f90612b5d565b6002810154600160a81b900460ff161561115b5760405162461bcd60e51b815260206004820152601760248201527f4c617779657220616c72656164792073656c6563746564000000000000000000604482015260640161094f565b60005b60008581526004602052604090205481101561128457600085815260046020526040902080546001600160a01b0386169190839081106111a0576111a0612b47565b60009182526020909120600490910201546001600160a01b03160361127c576000858152600460205260409020805460019190839081106111e3576111e3612b47565b60009182526020808320600492909202909101600301805460ff191693151593909317909255600284018054600160a81b6001600160a01b038916600161ff0160a01b0319909216821717909155808252600683526040918290206001015491519182529187917ffcf7a3a2e192a3b5519b3f00cd13a89c08caaf28d3b1c06f4ad5676212e4687d910160405180910390a35050505050565b60010161115e565b5060405162461bcd60e51b815260206004820152601060248201526f13185dde595c881b9bdd08199bdd5b9960821b604482015260640161094f565b604080516060810182526000808252602082018190529181019190915260008381526003602052604090208054839081106112fd576112fd612b47565b6000918252602091829020604080516060810182526002909302909101805483526001015460ff8082161515948401949094526101009004909216151591810191909152905092915050565b600080516020612c558339815191526113618161230e565b600083815260036020526040812080548490811061138157611381612b47565b60009182526020909120600290910201600181015490915060ff16156113dc5760405162461bcd60e51b815260206004820152601060248201526f105b1c9958591e48185c1c1c9bdd995960821b604482015260640161094f565b6000848152600560209081526040808320868452825291829020805460ff191660011790558151858152339181019190915285917f0e9e01fe03633aa3b7e0700b14b047ee9f7cabb4810270cb512d0acf68bdd7479101610bfa565b6000918252602082815260408084206001600160a01b0393909316845291905290205460ff1690565b6000600080516020612c5583398151915261147b8161230e565b3360009081526007602052604080822081518083019092528054829082906114a29061294f565b80601f01602080910402602001604051908101604052809291908181526020018280546114ce9061294f565b801561151b5780601f106114f05761010080835404028352916020019161151b565b820191906000526020600020905b8154815290600101906020018083116114fe57829003601f168201915b5050509183525050600191909101546020918201528101519091506115825760405162461bcd60e51b815260206004820152601b60248201527f4e474f206964656e74697479206e6f7420726567697374657265640000000000604482015260640161094f565b8051516115c35760405162461bcd60e51b815260206004820152600f60248201526e4e474f20434944206d697373696e6760881b604482015260640161094f565b60018054600091826115d483612bb1565b90915550600081815260026020819052604082208381556001810180546001600160a01b03191633179055908101805460ff60a01b1916600160a01b1790559192505b868110156116bb576003600084815260200190815260200160002060405180606001604052808a8a8581811061164f5761164f612b47565b6020908102929092013583525060008282018190526040928301819052845460018082018755958252908290208451600290920201908155908301519084018054939092015161ffff1990931690151561ff001916176101009215159290920291909117905501611617565b50604051339083907fa42a102b7be732c6c110f2a200de7ae4a49832e42c61c6c194cf1c94fbc5042e90600090a35095945050505050565b606060036000838152602001908152602001600020805480602002602001604051908101604052809291908181526020016000905b8282101561177e57600084815260209081902060408051606081018252600286029092018054835260019081015460ff808216151585870152610100909104161515918301919091529083529092019101611728565b505050509050919050565b606060006001805461179b9190612bca565b67ffffffffffffffff8111156117b3576117b36129d7565b60405190808252806020026020018201604052801561180c57816020015b6040805160a0810182526000808252602080830182905292820181905260608201819052608082015282526000199092019101816117d15790505b50905060015b6001548110156118b357600081815260026020818152604092839020835160a081018552815481526001808301546001600160a01b039081169483019490945291909301549182169383019390935260ff600160a01b8204811615156060840152600160a81b90910416151560808201529083906118909084612bca565b815181106118a0576118a0612b47565b6020908102919091010152600101611812565b50919050565b816118d65760405162461bcd60e51b815260040161094f90612983565b806118f35760405162461bcd60e51b815260040161094f906129a9565b6040805160606020601f8601819004028201810183529181018481529091829190869086908190850183828082843760009201829052509385525050506020918201849052338152600790915260409020815181906119529082612a3b565b5060208201518160010155905050611978600080516020612c5583398151915233611438565b61199657611994600080516020612c558339815191523361227c565b505b336001600160a01b03167f18b67075ce272c2b955cb5a420de429deca7bf99c3494dcaeb56bad10c359208848484604051610a5593929190612b23565b600860205260009081526040902080548190610c4e9061294f565b606060046000838152602001908152602001600020805480602002602001604051908101604052809291908181526020016000905b8282101561177e57600084815260209081902060408051608081019091526004850290910180546001600160a01b031682526001810180549293919291840191611a6c9061294f565b80601f0160208091040260200160405190810160405280929190818152602001828054611a989061294f565b8015611ae55780601f10611aba57610100808354040283529160200191611ae5565b820191906000526020600020905b815481529060010190602001808311611ac857829003601f168201915b50505050508152602001600282018054611afe9061294f565b80601f0160208091040260200160405190810160405280929190818152602001828054611b2a9061294f565b8015611b775780601f10611b4c57610100808354040283529160200191611b77565b820191906000526020600020905b815481529060010190602001808311611b5a57829003601f168201915b50505091835250506003919091015460ff1615156020918201529082526001929092019101611a23565b7fa49807205ce4d355092ef5a8a18f56e8913cf4a201fbe287825b095693c21775611bcb8161230e565b600b546001600160a01b031615611c195760405162461bcd60e51b8152602060048201526012602482015271115cd8dc9bddc8185b1c9958591e481cd95d60721b604482015260640161094f565b50600b80546001600160a01b0319166001600160a01b0392909216919091179055565b606060008060086000856001600160a01b03166001600160a01b031681526020019081526020016000206040518060400160405290816000820180546108949061294f565b600082815260208190526040902060010154611c9c8161230e565b610c2d838361231b565b81611cc35760405162461bcd60e51b815260040161094f90612983565b80611ce05760405162461bcd60e51b815260040161094f906129a9565b6040805160606020601f860181900402820181018352918101848152909182919086908690819085018382808284376000920182905250938552505050602091820184905233815260089091526040902081518190611d3f9082612a3b565b5060208201518160010155905050611d65600080516020612c3583398151915233611438565b611d8357611d81600080516020612c358339815191523361227c565b505b336001600160a01b03167f875562394945eaf466c6a2bb0d830ea2c40339f2953b3eb683b13183d4f769d1848484604051610a5593929190612b23565b600080516020612c15833981519152611dd88161230e565b60008681526002602081905260409091200154600160a01b900460ff16611e115760405162461bcd60e51b815260040161094f90612b5d565b336000908152600660205260408082208151808301909252805482908290611e389061294f565b80601f0160208091040260200160405190810160405280929190818152602001828054611e649061294f565b8015611eb15780601f10611e8657610100808354040283529160200191611eb1565b820191906000526020600020905b815481529060010190602001808311611e9457829003601f168201915b505050505081526020016001820154815250509050600081600001515111611f1b5760405162461bcd60e51b815260206004820152601e60248201527f4c6177796572206964656e74697479206e6f7420726567697374657265640000604482015260640161094f565b600460008881526020019081526020016000206040518060800160405280336001600160a01b0316815260200188888080601f016020809104026020016040519081016040528093929190818152602001838380828437600092019190915250505090825250604080516020601f8901819004810282018101909252878152918101919088908890819084018382808284376000920182905250938552505050602091820181905283546001808201865594825290829020835160049092020180546001600160a01b0319166001600160a01b0390921691909117815590820151919290919082019061200e9082612a3b565b50604082015160028201906120239082612a3b565b50606091909101516003909101805460ff19169115159190911790558051602082015160405133928a927fc1261d17df46c84704e8a88396f7241c0f7f3db0353f7d5d868e426a9b9966a49261207e9291908a908a90612bdd565b60405180910390a350505050505050565b6060808267ffffffffffffffff8111156120ab576120ab6129d7565b6040519080825280602002602001820160405280156120de57816020015b60608152602001906001900390816120c95790505b5091508267ffffffffffffffff8111156120fa576120fa6129d7565b604051908082528060200260200182016040528015612123578160200160208202803683370190505b50905060005b838110156122745760006006600087878581811061214957612149612b47565b905060200201602081019061215e9190612410565b6001600160a01b03166001600160a01b031681526020019081526020016000206040518060400160405290816000820180546121999061294f565b80601f01602080910402602001604051908101604052809291908181526020018280546121c59061294f565b80156122125780601f106121e757610100808354040283529160200191612212565b820191906000526020600020905b8154815290600101906020018083116121f557829003601f168201915b505050505081526020016001820154815250509050806000015184838151811061223e5761223e612b47565b6020026020010181905250806020015183838151811061226057612260612b47565b602090810291909101015250600101612129565b509250929050565b60006122888383611438565b612306576000838152602081815260408083206001600160a01b03861684529091529020805460ff191660011790556122be3390565b6001600160a01b0316826001600160a01b0316847f2f8788117e7eff1d82e926ec794901d17c78024a50270940304540a733656f0d60405160405180910390a4506001610849565b506000610849565b6123188133612386565b50565b60006123278383611438565b15612306576000838152602081815260408083206001600160a01b0386168085529252808320805460ff1916905551339286917ff6391f5c32d9c69d2a47ea670b442974b53935d1edc7fd64eb21e047a839171b9190a4506001610849565b6123908282611438565b6123bf5760405163e2517d3f60e01b81526001600160a01b03821660048201526024810183905260440161094f565b5050565b6000602082840312156123d557600080fd5b81356001600160e01b0319811681146123ed57600080fd5b9392505050565b80356001600160a01b038116811461240b57600080fd5b919050565b60006020828403121561242257600080fd5b6123ed826123f4565b6000815180845260005b8181101561245157602081850181015186830182015201612435565b506000602082860101526020601f19601f83011685010191505092915050565b604081526000612484604083018561242b565b90508260208301529392505050565b60008083601f8401126124a557600080fd5b50813567ffffffffffffffff8111156124bd57600080fd5b6020830191508360208285010111156124d557600080fd5b9250929050565b6000806000604084860312156124f157600080fd5b833567ffffffffffffffff81111561250857600080fd5b61251486828701612493565b909790965060209590950135949350505050565b6000806040838503121561253b57600080fd5b50508035926020909101359150565b60006020828403121561255c57600080fd5b5035919050565b6000806040838503121561257657600080fd5b82359150612586602084016123f4565b90509250929050565b6001600160a01b03851681526080602082018190526000906125b39083018661242b565b82810360408401526125c5818661242b565b915050821515606083015295945050505050565b8151815260208083015115159082015260408083015115159082015260608101610849565b60008083601f84011261261057600080fd5b50813567ffffffffffffffff81111561262857600080fd5b6020830191508360208260051b85010111156124d557600080fd5b6000806020838503121561265657600080fd5b823567ffffffffffffffff81111561266d57600080fd5b612679858286016125fe565b90969095509350505050565b602080825282518282018190526000918401906040840190835b818110156126e0576126ca838551805182526020808201511515908301526040908101511515910152565b602093909301926060929092019160010161269f565b509095945050505050565b805182526020808201516001600160a01b0390811691840191909152604080830151909116908301526060808201511515908301526080908101511515910152565b602080825282518282018190526000918401906040840190835b818110156126e05761275a8385516126eb565b6020939093019260a09290920191600101612747565b6000602082016020835280845180835260408501915060408160051b86010192506020860160005b8281101561281257868503603f19018452815180516001600160a01b031686526020808201516080918801829052906127d39088018261242b565b9050604082015187820360408901526127ec828261242b565b606093840151151598909301979097525094506020938401939190910190600101612798565b50929695505050505050565b60a0810161084982846126eb565b60008060008060006060868803121561284457600080fd5b85359450602086013567ffffffffffffffff81111561286257600080fd5b61286e88828901612493565b909550935050604086013567ffffffffffffffff81111561288e57600080fd5b61289a88828901612493565b969995985093965092949392505050565b6000604082016040835280855180835260608501915060608160051b86010192506020870160005b8281101561290457605f198786030184526128ef85835161242b565b945060209384019391909101906001016128d3565b50505050828103602084015280845180835260208301915060208601925060005b81811015612943578351835260209384019390920191600101612925565b50909695505050505050565b600181811c9082168061296357607f821691505b6020821081036118b357634e487b7160e01b600052602260045260246000fd5b6020808252600c908201526b10d251081c995c5d5a5c995960a21b604082015260600190565b602080825260149082015273092dcecc2d8d2c840e0c2f2d8dec2c840d0c2e6d60631b604082015260600190565b634e487b7160e01b600052604160045260246000fd5b601f821115610d0a57806000526020600020601f840160051c81016020851015612a145750805b601f840160051c820191505b81811015612a345760008155600101612a20565b5050505050565b815167ffffffffffffffff811115612a5557612a556129d7565b612a6981612a63845461294f565b846129ed565b6020601f821160018114612a9d5760008315612a855750848201515b600019600385901b1c1916600184901b178455612a34565b600084815260208120601f198516915b82811015612acd5787850151825560209485019460019092019101612aad565b5084821015612aeb5786840151600019600387901b60f8161c191681555b50505050600190811b01905550565b81835281816020850137506000828201602090810191909152601f909101601f19169091010190565b604081526000612b37604083018587612afa565b9050826020830152949350505050565b634e487b7160e01b600052603260045260246000fd5b602080825260119082015270426f756e7479206e6f742061637469766560781b604082015260600190565b634e487b7160e01b600052601160045260246000fd5b8082018082111561084957610849612b88565b600060018201612bc357612bc3612b88565b5060010190565b8181038181111561084957610849612b88565b606081526000612bf0606083018761242b565b8560208401528281036040840152612c09818587612afa565b97965050505050505056fe16cedf8f601395ad37b8f7ac016395362fad21dfdd3152a47a294d9c5a3c29747590f0264744cd50915976d360e18170bc29db6f1a196d3b1061f7f1940521707409dd26ef14054436243be79996fa1ab352eb1e8f34bcf72012e7de1d1176f0a264697066735822122018e5aea4fb258a70d70b988b7c68b400330fd63283e19675f7346b06958b6c0e64736f6c634300081c0033",
  "linkReferences": {},
  "deployedLinkReferences": {}
}