{
  "_format": "hh-sol-artifact-1",
  "contractName": "BountyEscrow",
  "sourceName": "contracts/BountyEscrow.sol",
  "abi": [
    {
      "inputs": [
        {
          "internalType": "address",
          "name": "tokenAddress",
          "type": "address"
        },
        {
          "internalType": "address",
          "name": "registryAddress",
          "type": "address"
        }
      ],
      "stateMutability": "nonpayable",
      "type": "constructor"
    },
    {
      "inputs": [],
      "name": "AccessControlBadConfirmation",
      "type": "error"
    },
    {
      "inputs": [
        {
          "internalType": "address",
          "name": "account",
          "type": "address"
        },
        {
          "internalType": "bytes32",
          "name": "neededRole",
          "type": "bytes32"
        }
      ],
      "name": "AccessControlUnauthorizedAccount",
      "type": "error"
    },
    {
      "anonymous": false,
      "inputs": [
        {
          "indexed": false,
          "internalType": "uint256",
          "name": "bountyId",
          "type": "uint256"
        },
        {
          "indexed": false,
          "internalType": "address",
          "name": "donor",
          "type": "address"
        },
        {
          "indexed": false,
          "internalType": "uint256",
          "name": "amount",
          "type": "uint256"
        }
      ],
      "name": "Deposited",
      "type": "event"
    },
    {
      "anonymous": false,
      "inputs": [
        {
          "indexed": false,
          "internalType": "uint256",
          "name": "bountyId",
          "type": "uint256"
        },
        {
          "indexed": false,
          "internalType": "uint256",
          "name": "milestoneId",
          "type": "uint256"
        },
        {
          "indexed": false,
          "internalType": "address",
          "name": "lawyer",
          "type": "address"
        },
        {
          "indexed": false,
          "internalType": "uint256",
          "name": "amount",
          "type": "uint256"
        },
        {
          "indexed": false,
          "internalType": "bytes32",
          "name": "payloadHash",
          "type": "bytes32"
        }
      ],
      "name": "Released",
      "type": "event"
    },
    {
      "anonymous": false,
      "inputs": [
        {
          "indexed": true,
          "internalType": "bytes32",
          "name": "role",
          "type": "bytes32"
        },
        {
          "indexed": true,
          "internalType": "bytes32",
          "name": "previousAdminRole",
          "type": "bytes32"
        },
        {
          "indexed": true,
          "internalType": "bytes32",
          "name": "newAdminRole",
          "type": "bytes32"
        }
      ],
      "name": "RoleAdminChanged",
      "type": "event"
    },
    {
      "anonymous": false,
      "inputs": [
        {
          "indexed": true,
          "internalType": "bytes32",
          "name": "role",
          "type": "bytes32"
        },
        {
          "indexed": true,
          "internalType": "address",
          "name": "account",
          "type": "address"
        },
        {
          "indexed": true,
          "internalType": "address",
          "name": "sender",
          "type": "address"
        }
      ],
      "name": "RoleGranted",
      "type": "event"
    },
    {
      "anonymous": false,
      "inputs": [
        {
          "indexed": true,
          "internalType": "bytes32",
          "name": "role",
          "type": "bytes32"
        },
        {
          "indexed": true,
          "internalType": "address",
          "name": "account",
          "type": "address"
        },
        {
          "indexed": true,
          "internalType": "address",
          "name": "sender",
          "type": "address"
        }
      ],
      "name": "RoleRevoked",
      "type": "event"
    },
    {
      "inputs": [],
      "name": "ADMIN_ROLE",
      "outputs": [
        {
          "internalType": "bytes32",
          "name": "",
          "type": "bytes32"
        }
      ],
      "stateMutability": "view",
      "type": "function"
    },
    {
      "inputs": [],
      "name": "CASE_STEWARD_ROLE",
      "outputs": [
        {
          "internalType": "bytes32",
          "name": "",
          "type": "bytes32"
        }
      ],
      "stateMutability": "view",
      "type": "function"
    },
    {
      "inputs": [],
      "name": "DEFAULT_ADMIN_ROLE",
      "outputs": [
        {
          "internalType": "bytes32",
          "name": "",
          "type": "bytes32"
        }
      ],
      "stateMutability": "view",
      "type": "function"
    },
    {
      "inputs": [],
      "name": "DONOR_ROLE",
      "outputs": [
        {
          "internalType": "bytes32",
          "name": "",
          "type": "bytes32"
        }
      ],
      "stateMutability": "view",
      "type": "function"
    },
    {
      "inputs": [],
      "name": "NGO_ROLE",
      "outputs": [
        {
          "internalType": "bytes32",
          "name": "",
          "type": "bytes32"
        }
      ],
      "stateMutability": "view",
      "type": "function"
    },
    {
      "inputs": [
        {
          "internalType": "uint256",
          "name": "bountyId",
          "type": "uint256"
        },
        {
          "internalType": "uint256",
          "name": "milestoneId",
          "type": "uint256"
        }
      ],
      "name": "approveMilestone",
      "outputs": [],
      "stateMutability": "nonpayable",
      "type": "function"
    },
    {
      "inputs": [],
      "name": "bountyRegistry",
      "outputs": [
        {
          "internalType": "contract IBountyRegistry",
          "name": "",
          "type": "address"
        }
      ],
      "stateMutability": "view",
      "type": "function"
    },
    {
      "inputs": [
        {
          "internalType": "uint256",
          "name": "bountyId",
          "type": "uint256"
        },
        {
          "internalType": "address",
          "name": "donor",
          "type": "address"
        },
        {
          "internalType": "uint256",
          "name": "amount",
          "type": "uint256"
        }
      ],
      "name": "deposit",
      "outputs": [],
      "stateMutability": "nonpayable",
      "type": "function"
    },
    {
      "inputs": [
        {
          "internalType": "uint256",
          "name": "bountyId",
          "type": "uint256"
        }
      ],
      "name": "getBountyBalance",
      "outputs": [
        {
          "internalType": "uint256",
          "name": "",
          "type": "uint256"
        }
      ],
      "stateMutability": "view",
      "type": "function"
    },
    {
      "inputs": [
        {
          "internalType": "uint256[]",
          "name": "bountyIds",
          "type": "uint256[]"
        }
      ],
      "name": "getBountyBalances",
      "outputs": [
        {
          "internalType": "uint256[]",
          "name": "",
          "type": "uint256[]"
        }
      ],
      "stateMutability": "view",
      "type": "function"
    },
    {
      "inputs": [
        {
          "internalType": "uint256",
          "name": "bountyId",
          "type": "uint256"
        },
        {
          "internalType": "address",
          "name": "donor",
          "type": "address"
        }
      ],
      "name": "getDonorContribution",
      "outputs": [
        {
          "internalType": "uint256",
          "name": "",
          "type": "uint256"
        }
      ],
      "stateMutability": "view",
      "type": "function"
    },
    {
      "inputs": [
        {
          "internalType": "uint256",
          "name": "bountyId",
          "type": "uint256"
        },
        {
          "internalType": "address[]",
          "name": "donors",
          "type": "address[]"
        }
      ],
      "name": "getDonorContributions",
      "outputs": [
        {
          "internalType": "uint256[]",
          "name": "",
          "type": "uint256[]"
        }
      ],
      "stateMutability": "view",
      "type": "function"
    },
    {
      "inputs": [
        {
          "internalType": "bytes32",
          "name": "role",
          "type": "bytes32"
        }
      ],
      "name": "getRoleAdmin",
      "outputs": [
        {
          "internalType": "bytes32",
          "name": "",
          "type": "bytes32"
        }
      ],
      "stateMutability": "view",
      "type": "function"
    },
    {
      "inputs": [
        {
          "internalType": "bytes32",
          "name": "role",
          "type": "bytes32"
        },
        {
          "internalType": "address",
          "name": "account",
          "type": "address"
        }
      ],
      "name": "grantRole",
      "outputs": [],
      "stateMutability": "nonpayable",
      "type": "function"
    },
    {
      "inputs": [
        {
          "internalType": "bytes32",
          "name": "role",
          "type": "bytes32"
        },
        {
          "internalType": "address",
          "name": "account",
          "type": "address"
        }
      ],
      "name": "hasRole",
      "outputs": [
        {
          "internalType": "bool",
          "name": "",
          "type": "bool"
        }
      ],
      "stateMutability": "view",
      "type": "function"
    },
    {
      "inputs": [
        {
          "internalType": "uint256",
          "name": "bountyId",
          "type": "uint256"
        },
        {
          "internalType": "uint256",
          "name": "milestoneId",
          "type": "uint256"
        }
      ],
      "name": "release",
      "outputs": [],
      "stateMutability": "nonpayable",
      "type": "function"
    },
    {
      "inputs": [
        {
          "internalType": "bytes32",
          "name": "role",
          "type": "bytes32"
        },
        {
          "internalType": "address",
          "name": "callerConfirmation",
          "type": "address"
        }
      ],
      "name": "renounceRole",
      "outputs": [],
      "stateMutability": "nonpayable",
      "type": "function"
    },
    {
      "inputs": [
        {
          "internalType": "bytes32",
          "name": "role",
          "type": "bytes32"
        },
        {
          "internalType": "address",
          "name": "account",
          "type": "address"
        }
      ],
      "name": "revokeRole",
      "outputs": [],
      "stateMutability": "nonpayable",
      "type": "function"
    },
    {
      "inputs": [
        {
          "internalType": "bytes4",
          "name": "interfaceId",
          "type": "bytes4"
        }
      ],
      "name": "supportsInterface",
      "outputs": [
        {
          "internalType": "bool",
          "name": "",
          "type": "bool"
        }
      ],
      "stateMutability": "view",
      "type": "function"
    },
    {
      "inputs": [],
      "name": "token",
      "outputs": [
        {
          "internalType": "contract HakiToken",
          "name": "",
          "type": "address"
        }
      ],
      "stateMutability": "view",
      "type": "function"
    }
  ],
  "bytecode": "0x608060405234801561001057600080fd5b5060405161158438038061158483398101604081905261002f91610165565b600180546001600160a01b038085166001600160a01b031992831617909255600280549284169290911691909117905561006a60003361009d565b506100957fa49807205ce4d355092ef5a8a18f56e8913cf4a201fbe287825b095693c217753361009d565b505050610198565b6000828152602081815260408083206001600160a01b038516845290915281205460ff1661013f576000838152602081815260408083206001600160a01b03861684529091529020805460ff191660011790556100f73390565b6001600160a01b0316826001600160a01b0316847f2f8788117e7eff1d82e926ec794901d17c78024a50270940304540a733656f0d60405160405180910390a4506001610143565b5060005b92915050565b80516001600160a01b038116811461016057600080fd5b919050565b6000806040838503121561017857600080fd5b61018183610149565b915061018f60208401610149565b90509250929050565b6113dd806101a76000396000f3fe608060405234801561001057600080fd5b506004361061012c5760003560e01c806391d14854116100ad578063d547741f11610071578063d547741f146102e3578063d5b787b2146102f6578063e6a366c514610309578063f10a6dfc14610330578063fc0c546a1461035757600080fd5b806391d148541461026a578063a1be44e01461027d578063a217fddf146102b3578063bc157ac1146102bb578063c864be8a146102ce57600080fd5b806336568abe116100f457806336568abe146101d2578063366a4120146101e557806375b238fc146101f85780637e6c6f041461021f578063817d24d41461024a57600080fd5b806301ffc9a7146101315780630fda3bb51461015957806320913da514610187578063248a9ca31461019c5780632f2ff15d146101bf575b600080fd5b61014461013f366004610ef3565b61036a565b60405190151581526020015b60405180910390f35b610179610167366004610f24565b60009081526003602052604090205490565b604051908152602001610150565b61019a610195366004610f3d565b6103a1565b005b6101796101aa366004610f24565b60009081526020819052604090206001015490565b61019a6101cd366004610f74565b610435565b61019a6101e0366004610f74565b610460565b61019a6101f3366004610f3d565b610498565b6101797fa49807205ce4d355092ef5a8a18f56e8913cf4a201fbe287825b095693c2177581565b600254610232906001600160a01b031681565b6040516001600160a01b039091168152602001610150565b61025d610258366004610ff0565b610925565b6040516101509190611032565b610144610278366004610f74565b6109d2565b61017961028b366004610f74565b60009182526004602090815260408084206001600160a01b0393909316845291905290205490565b610179600081565b61019a6102c9366004611075565b6109fb565b61017960008051602061138883398151915281565b61019a6102f1366004610f74565b610cae565b61025d6103043660046110ad565b610cd3565b6101797faf3776edc7dcbb646e3194c4267a84a79c10d0f649558713c6ae38f7ea38a12e81565b6101797f7409dd26ef14054436243be79996fa1ab352eb1e8f34bcf72012e7de1d1176f081565b600154610232906001600160a01b031681565b60006001600160e01b03198216637965db0b60e01b148061039b57506301ffc9a760e01b6001600160e01b03198316145b92915050565b7f7409dd26ef14054436243be79996fa1ab352eb1e8f34bcf72012e7de1d1176f06103cb81610dac565b60025460405163902ef68760e01b815260048101859052602481018490526001600160a01b039091169063902ef68790604401600060405180830381600087803b15801561041857600080fd5b505af115801561042c573d6000803e3d6000fd5b50505050505050565b60008281526020819052604090206001015461045081610dac565b61045a8383610db9565b50505050565b6001600160a01b03811633146104895760405163334bd91960e11b815260040160405180910390fd5b6104938282610e4b565b505050565b6104c27faf3776edc7dcbb646e3194c4267a84a79c10d0f649558713c6ae38f7ea38a12e336109d2565b806104f257506104f27fa49807205ce4d355092ef5a8a18f56e8913cf4a201fbe287825b095693c21775336109d2565b61053a5760405162461bcd60e51b81526020600482015260146024820152732737ba1039ba32bbb0b9321037b91030b236b4b760611b60448201526064015b60405180910390fd5b60025460405163ee8c4bbf60e01b8152600481018490526000916001600160a01b03169063ee8c4bbf9060240160a060405180830381865afa158015610584573d6000803e3d6000fd5b505050506040513d601f19601f820116820180604052508101906105a89190611155565b6002546040516323b6625760e21b815260048101869052602481018590529192506000916001600160a01b0390911690638ed9895c90604401606060405180830381865afa1580156105fe573d6000803e3d6000fd5b505050506040513d601f19601f8201168201806040525081019061062291906111e2565b9050816080015161066b5760405162461bcd60e51b815260206004820152601360248201527213185dde595c881b9bdd081cd95b1958dd1959606a1b6044820152606401610531565b80602001516106b55760405162461bcd60e51b8152602060048201526016602482015275135a5b195cdd1bdb99481b9bdd08185c1c1c9bdd995960521b6044820152606401610531565b8060400151156107075760405162461bcd60e51b815260206004820152601a60248201527f4d696c6573746f6e6520616c72656164792072656c65617365640000000000006044820152606401610531565b8051600085815260036020526040902054101561075c5760405162461bcd60e51b8152602060048201526013602482015272496e73756666696369656e7420657363726f7760681b6044820152606401610531565b80516000858152600360205260408120805490919061077c90849061125f565b90915550506001546040838101518351915163a9059cbb60e01b81526001600160a01b03918216600482015260248101929092529091169063a9059cbb906044016020604051808303816000875af11580156107dc573d6000803e3d6000fd5b505050506040513d601f19601f820116820180604052508101906108009190611272565b6108445760405162461bcd60e51b8152602060048201526015602482015274151bdad95b881d1c985b9cd9995c8819985a5b1959605a1b6044820152606401610531565b6002546040838101519051635da0fce760e01b81526001600160a01b0391821660048201526000929190911690635da0fce790602401600060405180830381865afa158015610897573d6000803e3d6000fd5b505050506040513d6000823e601f3d908101601f191682016040526108bf919081019061128d565b604085810151855182518a8152602081018a90526001600160a01b039092168284015260608201526080810183905290519193507f81690d306403e9273c7c4cf2ce8c13a33d10c1029eff94bd3e95371cc11dda58925081900360a00190a15050505050565b606060008267ffffffffffffffff811115610942576109426110f9565b60405190808252806020026020018201604052801561096b578160200160208202803683370190505b50905060005b838110156109ca576003600086868481811061098f5761098f611341565b905060200201358152602001908152602001600020548282815181106109b7576109b7611341565b6020908102919091010152600101610971565b509392505050565b6000918252602082815260408084206001600160a01b0393909316845291905290205460ff1690565b610a13600080516020611388833981519152836109d2565b610af657600254604051636793f32f60e11b81526001600160a01b038481166004830152600092169063cf27e65e90602401600060405180830381865afa158015610a62573d6000803e3d6000fd5b505050506040513d6000823e601f3d908101601f19168201604052610a8a919081019061128d565b9150819050610adb5760405162461bcd60e51b815260206004820181905260248201527f446f6e6f72206e6f74207265676973746572656420696e2072656769737472796044820152606401610531565b610af360008051602061138883398151915284610db9565b50505b610b0e600080516020611388833981519152836109d2565b610b4b5760405162461bcd60e51b815260206004820152600e60248201526d4e6f7420646f6e6f7220726f6c6560901b6044820152606401610531565b6001546040516323b872dd60e01b81526001600160a01b03848116600483015230602483015260448201849052909116906323b872dd906064016020604051808303816000875af1158015610ba4573d6000803e3d6000fd5b505050506040513d601f19601f82011682018060405250810190610bc89190611272565b610c065760405162461bcd60e51b815260206004820152600f60248201526e151c985b9cd9995c8819985a5b1959608a1b6044820152606401610531565b60008381526003602052604081208054839290610c24908490611357565b909155505060008381526004602090815260408083206001600160a01b038616845290915281208054839290610c5b908490611357565b9091555050604080518481526001600160a01b03841660208201529081018290527f1599c0fcf897af5babc2bfcf707f5dc050f841b044d97c3251ecec35b9abf80b9060600160405180910390a1505050565b600082815260208190526040902060010154610cc981610dac565b61045a8383610e4b565b606060008267ffffffffffffffff811115610cf057610cf06110f9565b604051908082528060200260200182016040528015610d19578160200160208202803683370190505b50905060005b83811015610da357600086815260046020526040812090868684818110610d4857610d48611341565b9050602002016020810190610d5d919061136a565b6001600160a01b03166001600160a01b0316815260200190815260200160002054828281518110610d9057610d90611341565b6020908102919091010152600101610d1f565b50949350505050565b610db68133610eb6565b50565b6000610dc583836109d2565b610e43576000838152602081815260408083206001600160a01b03861684529091529020805460ff19166001179055610dfb3390565b6001600160a01b0316826001600160a01b0316847f2f8788117e7eff1d82e926ec794901d17c78024a50270940304540a733656f0d60405160405180910390a450600161039b565b50600061039b565b6000610e5783836109d2565b15610e43576000838152602081815260408083206001600160a01b0386168085529252808320805460ff1916905551339286917ff6391f5c32d9c69d2a47ea670b442974b53935d1edc7fd64eb21e047a839171b9190a450600161039b565b610ec082826109d2565b610eef5760405163e2517d3f60e01b81526001600160a01b038216600482015260248101839052604401610531565b5050565b600060208284031215610f0557600080fd5b81356001600160e01b031981168114610f1d57600080fd5b9392505050565b600060208284031215610f3657600080fd5b5035919050565b60008060408385031215610f5057600080fd5b50508035926020909101359150565b6001600160a01b0381168114610db657600080fd5b60008060408385031215610f8757600080fd5b823591506020830135610f9981610f5f565b809150509250929050565b60008083601f840112610fb657600080fd5b50813567ffffffffffffffff811115610fce57600080fd5b6020830191508360208260051b8501011115610fe957600080fd5b9250929050565b6000806020838503121561100357600080fd5b823567ffffffffffffffff81111561101a57600080fd5b61102685828601610fa4565b90969095509350505050565b602080825282518282018190526000918401906040840190835b8181101561106a57835183526020938401939092019160010161104c565b509095945050505050565b60008060006060848603121561108a57600080fd5b83359250602084013561109c81610f5f565b929592945050506040919091013590565b6000806000604084860312156110c257600080fd5b83359250602084013567ffffffffffffffff8111156110e057600080fd5b6110ec86828701610fa4565b9497909650939450505050565b634e487b7160e01b600052604160045260246000fd5b604051601f8201601f1916810167ffffffffffffffff81118282101715611138576111386110f9565b604052919050565b8051801515811461115057600080fd5b919050565b600060a082840312801561116857600080fd5b5060405160a0810167ffffffffffffffff8111828210171561118c5761118c6110f9565b6040528251815260208301516111a181610f5f565b602082015260408301516111b481610f5f565b60408201526111c560608401611140565b60608201526111d660808401611140565b60808201529392505050565b600060608284031280156111f557600080fd5b506040516060810167ffffffffffffffff81118282101715611219576112196110f9565b6040528251815261122c60208401611140565b602082015261123d60408401611140565b60408201529392505050565b634e487b7160e01b600052601160045260246000fd5b8181038181111561039b5761039b611249565b60006020828403121561128457600080fd5b610f1d82611140565b600080604083850312156112a057600080fd5b825167ffffffffffffffff8111156112b757600080fd5b8301601f810185136112c857600080fd5b805167ffffffffffffffff8111156112e2576112e26110f9565b6112f5601f8201601f191660200161110f565b81815286602083850101111561130a57600080fd5b60005b828110156113295760208185018101518383018201520161130d565b50600060209282018301529401519395939450505050565b634e487b7160e01b600052603260045260246000fd5b8082018082111561039b5761039b611249565b60006020828403121561137c57600080fd5b8135610f1d81610f5f56fe7590f0264744cd50915976d360e18170bc29db6f1a196d3b1061f7f194052170a26469706673582212202640405163508723ff1b4651c88edc33570d15aadbe49902433ec152fbca68a364736f6c634300081c0033",
  "linkReferences": {},
  "deployedLinkReferences": {}
}