{
  "_format": "hh-sol-artifact-1",
  "contractName": "HakiToken",
  "sourceName": "contracts/HakiToken.sol",
  "abi": [
    {
      "inputs": [],
      "stateMutability": "nonpayable",
      "type": "constructor"
    },
    {
      "inputs": [],
      "name": "AccessControlBadConfirmation",
      "type": "error"
    },
    {
      "inputs": [
        {
          "internalType": "address",
          "name": "account",
          "type": "address"
        },
        {
          "internalType": "bytes32",
          "name": "neededRole",
          "type": "bytes32"
        }
      ],
      "name": "AccessControlUnauthorizedAccount",
      "type": "error"
    },
    {
      "inputs": [
        {
          "internalType": "address",
          "name": "spender",
          "type": "address"
        },
        {
          "internalType": "uint256",
          "name": "allowance",
          "type": "uint256"
        },
        {
          "internalType": "uint256",
          "name": "needed",
          "type": "uint256"
        }
      ],
      "name": "ERC20InsufficientAllowance",
      "type": "error"
    },
    {
      "inputs": [
        {
          "internalType": "address",
          "name": "sender",
          "type": "address"
        },
        {
          "internalType": "uint256",
          "name": "balance",
          "type": "uint256"
        },
        {
          "internalType": "uint256",
          "name": "needed",
          "type": "uint256"
        }
      ],
      "name": "ERC20InsufficientBalance",
      "type": "error"
    },
    {
      "inputs": [
        {
          "internalType": "address",
          "name": "approver",
          "type": "address"
        }
      ],
      "name": "ERC20InvalidApprover",
      "type": "error"
    },
    {
      "inputs": [
        {
          "internalType": "address",
          "name": "receiver",
          "type": "address"
        }
      ],
      "name": "ERC20InvalidReceiver",
      "type": "error"
    },
    {
      "inputs": [
        {
          "internalType": "address",
          "name": "sender",
          "type": "address"
        }
      ],
      "name": "ERC20InvalidSender",
      "type": "error"
    },
    {
      "inputs": [
        {
          "internalType": "address",
          "name": "spender",
          "type": "address"
        }
      ],
      "name": "ERC20InvalidSpender",
      "type": "error"
    },
    {
      "anonymous": false,
      "inputs": [
        {
          "indexed": true,
          "internalType": "address",
          "name": "owner",
          "type": "address"
        },
        {
          "indexed": true,
          "internalType": "address",
          "name": "spender",
          "type": "address"
        },
        {
          "indexed": false,
          "internalType": "uint256",
          "name": "value",
          "type": "uint256"
        }
      ],
      "name": "Approval",
      "type": "event"
    },
    {
      "anonymous": false,
      "inputs": [
        {
          "indexed": true,
          "internalType": "bytes32",
          "name": "role",
          "type": "bytes32"
        },
        {
          "indexed": true,
          "internalType": "bytes32",
          "name": "previousAdminRole",
          "type": "bytes32"
        },
        {
          "indexed": true,
          "internalType": "bytes32",
          "name": "newAdminRole",
          "type": "bytes32"
        }
      ],
      "name": "RoleAdminChanged",
      "type": "event"
    },
    {
      "anonymous": false,
      "inputs": [
        {
          "indexed": true,
          "internalType": "bytes32",
          "name": "role",
          "type": "bytes32"
        },
        {
          "indexed": true,
          "internalType": "address",
          "name": "account",
          "type": "address"
        },
        {
          "indexed": true,
          "internalType": "address",
          "name": "sender",
          "type": "address"
        }
      ],
      "name": "RoleGranted",
      "type": "event"
    },
    {
      "anonymous": false,
      "inputs": [
        {
          "indexed": true,
          "internalType": "bytes32",
          "name": "role",
          "type": "bytes32"
        },
        {
          "indexed": true,
          "internalType": "address",
          "name": "account",
          "type": "address"
        },
        {
          "indexed": true,
          "internalType": "address",
          "name": "sender",
          "type": "address"
        }
      ],
      "name": "RoleRevoked",
      "type": "event"
    },
    {
      "anonymous": false,
      "inputs": [
        {
          "indexed": true,
          "internalType": "address",
          "name": "from",
          "type": "address"
        },
        {
          "indexed": true,
          "internalType": "address",
          "name": "to",
          "type": "address"
        },
        {
          "indexed": false,
          "internalType": "uint256",
          "name": "value",
          "type": "uint256"
        }
      ],
      "name": "Transfer",
      "type": "event"
    },
    {
      "inputs": [],
      "name": "DEFAULT_ADMIN_ROLE",
      "outputs": [
        {
          "internalType": "bytes32",
          "name": "",
          "type": "bytes32"
        }
      ],
      "stateMutability": "view",
      "type": "function"
    },
    {
      "inputs": [],
      "name": "MINTER_ROLE",
      "outputs": [
        {
          "internalType": "bytes32",
          "name": "",
          "type": "bytes32"
        }
      ],
      "stateMutability": "view",
      "type": "function"
    },
    {
      "inputs": [
        {
          "internalType": "address",
          "name": "owner",
          "type": "address"
        },
        {
          "internalType": "address",
          "name": "spender",
          "type": "address"
        }
      ],
      "name": "allowance",
      "outputs": [
        {
          "internalType": "uint256",
          "name": "",
          "type": "uint256"
        }
      ],
      "stateMutability": "view",
      "type": "function"
    },
    {
      "inputs": [
        {
          "internalType": "address",
          "name": "spender",
          "type": "address"
        },
        {
          "internalType": "uint256",
          "name": "value",
          "type": "uint256"
        }
      ],
      "name": "approve",
      "outputs": [
        {
          "internalType": "bool",
          "name": "",
          "type": "bool"
        }
      ],
      "stateMutability": "nonpayable",
      "type": "function"
    },
    {
      "inputs": [
        {
          "internalType": "address",
          "name": "account",
          "type": "address"
        }
      ],
      "name": "balanceOf",
      "outputs": [
        {
          "internalType": "uint256",
          "name": "",
          "type": "uint256"
        }
      ],
      "stateMutability": "view",
      "type": "function"
    },
    {
      "inputs": [],
      "name": "decimals",
      "outputs": [
        {
          "internalType": "uint8",
          "name": "",
          "type": "uint8"
        }
      ],
      "stateMutability": "view",
      "type": "function"
    },
    {
      "inputs": [
        {
          "internalType": "bytes32",
          "name": "role",
          "type": "bytes32"
        }
      ],
      "name": "getRoleAdmin",
      "outputs": [
        {
          "internalType": "bytes32",
          "name": "",
          "type": "bytes32"
        }
      ],
      "stateMutability": "view",
      "type": "function"
    },
    {
      "inputs": [
        {
          "internalType": "bytes32",
          "name": "role",
          "type": "bytes32"
        },
        {
          "internalType": "address",
          "name": "account",
          "type": "address"
        }
      ],
      "name": "grantRole",
      "outputs": [],
      "stateMutability": "nonpayable",
      "type": "function"
    },
    {
      "inputs": [
        {
          "internalType": "bytes32",
          "name": "role",
          "type": "bytes32"
        },
        {
          "internalType": "address",
          "name": "account",
          "type": "address"
        }
      ],
      "name": "hasRole",
      "outputs": [
        {
          "internalType": "bool",
          "name": "",
          "type": "bool"
        }
      ],
      "stateMutability": "view",
      "type": "function"
    },
    {
      "inputs": [
        {
          "internalType": "address",
          "name": "to",
          "type": "address"
        },
        {
          "internalType": "uint256",
          "name": "amount",
          "type": "uint256"
        }
      ],
      "name": "mint",
      "outputs": [],
      "stateMutability": "nonpayable",
      "type": "function"
    },
    {
      "inputs": [],
      "name": "name",
      "outputs": [
        {
          "internalType": "string",
          "name": "",
          "type": "string"
        }
      ],
      "stateMutability": "view",
      "type": "function"
    },
    {
      "inputs": [
        {
          "internalType": "bytes32",
          "name": "role",
          "type": "bytes32"
        },
        {
          "internalType": "address",
          "name": "callerConfirmation",
          "type": "address"
        }
      ],
      "name": "renounceRole",
      "outputs": [],
      "stateMutability": "nonpayable",
      "type": "function"
    },
    {
      "inputs": [
        {
          "internalType": "bytes32",
          "name": "role",
          "type": "bytes32"
        },
        {
          "internalType": "address",
          "name": "account",
          "type": "address"
        }
      ],
      "name": "revokeRole",
      "outputs": [],
      "stateMutability": "nonpayable",
      "type": "function"
    },
    {
      "inputs": [
        {
          "internalType": "bytes4",
          "name": "interfaceId",
          "type": "bytes4"
        }
      ],
      "name": "supportsInterface",
      "outputs": [
        {
          "internalType": "bool",
          "name": "",
          "type": "bool"
        }
      ],
      "stateMutability": "view",
      "type": "function"
    },
    {
      "inputs": [],
      "name": "symbol",
      "outputs": [
        {
          "internalType": "string",
          "name": "",
          "type": "string"
        }
      ],
      "stateMutability": "view",
      "type": "function"
    },
    {
      "inputs": [],
      "name": "totalSupply",
      "outputs": [
        {
          "internalType": "uint256",
          "name": "",
          "type": "uint256"
        }
      ],
      "stateMutability": "view",
      "type": "function"
    },
    {
      "inputs": [
        {
          "internalType": "address",
          "name": "to",
          "type": "address"
        },
        {
          "internalType": "uint256",
          "name": "value",
          "type": "uint256"
        }
      ],
      "name": "transfer",
      "outputs": [
        {
          "internalType": "bool",
          "name": "",
          "type": "bool"
        }
      ],
      "stateMutability": "nonpayable",
      "type": "function"
    },
    {
      "inputs": [
        {
          "internalType": "address",
          "name": "from",
          "type": "address"
        },
        {
          "internalType": "address",
          "name": "to",
          "type": "address"
        },
        {
          "internalType": "uint256",
          "name": "value",
          "type": "uint256"
        }
      ],
      "name": "transferFrom",
      "outputs": [
        {
          "internalType": "bool",
          "name": "",
          "type": "bool"
        }
      ],
      "stateMutability": "nonpayable",
      "type": "function"
    }
  ],
  "bytecode": "0x608060405234801561001057600080fd5b506040518060400160405280600a8152602001692430b5b4902a37b5b2b760b11b8152506040518060400160405280600481526020016348414b4960e01b8152508160039081610060919061035e565b50600461006d828261035e565b5061007d915060009050336100a6565b506100a13361008e6012600a610519565b61009c906302faf08061052f565b610156565b610559565b60008281526005602090815260408083206001600160a01b038516845290915281205460ff1661014c5760008381526005602090815260408083206001600160a01b03861684529091529020805460ff191660011790556101043390565b6001600160a01b0316826001600160a01b0316847f2f8788117e7eff1d82e926ec794901d17c78024a50270940304540a733656f0d60405160405180910390a4506001610150565b5060005b92915050565b6001600160a01b0382166101855760405163ec442f0560e01b8152600060048201526024015b60405180910390fd5b61019160008383610195565b5050565b6001600160a01b0383166101c05780600260008282546101b59190610546565b909155506102329050565b6001600160a01b038316600090815260208190526040902054818110156102135760405163391434e360e21b81526001600160a01b0385166004820152602481018290526044810183905260640161017c565b6001600160a01b03841660009081526020819052604090209082900390555b6001600160a01b03821661024e5760028054829003905561026d565b6001600160a01b03821660009081526020819052604090208054820190555b816001600160a01b0316836001600160a01b03167fddf252ad1be2c89b69c2b068fc378daa952ba7f163c4a11628f55a4df523b3ef836040516102b291815260200190565b60405180910390a3505050565b634e487b7160e01b600052604160045260246000fd5b600181811c908216806102e957607f821691505b60208210810361030957634e487b7160e01b600052602260045260246000fd5b50919050565b601f82111561035957806000526020600020601f840160051c810160208510156103365750805b601f840160051c820191505b818110156103565760008155600101610342565b50505b505050565b81516001600160401b03811115610377576103776102bf565b61038b8161038584546102d5565b8461030f565b6020601f8211600181146103bf57600083156103a75750848201515b600019600385901b1c1916600184901b178455610356565b600084815260208120601f198516915b828110156103ef57878501518255602094850194600190920191016103cf565b508482101561040d5786840151600019600387901b60f8161c191681555b50505050600190811b01905550565b634e487b7160e01b600052601160045260246000fd5b6001815b600184111561046d578085048111156104515761045161041c565b600184161561045f57908102905b60019390931c928002610436565b935093915050565b60008261048457506001610150565b8161049157506000610150565b81600181146104a757600281146104b1576104cd565b6001915050610150565b60ff8411156104c2576104c261041c565b50506001821b610150565b5060208310610133831016604e8410600b84101617156104f0575081810a610150565b6104fd6000198484610432565b80600019048211156105115761051161041c565b029392505050565b600061052860ff841683610475565b9392505050565b80820281158282048414176101505761015061041c565b808201808211156101505761015061041c565b610b5f806105686000396000f3fe608060405234801561001057600080fd5b50600436106101165760003560e01c806340c10f19116100a2578063a217fddf11610071578063a217fddf14610241578063a9059cbb14610249578063d53913931461025c578063d547741f14610283578063dd62ed3e1461029657600080fd5b806340c10f19146101ea57806370a08231146101fd57806391d148541461022657806395d89b411461023957600080fd5b806323b872dd116100e957806323b872dd1461017d578063248a9ca3146101905780632f2ff15d146101b3578063313ce567146101c857806336568abe146101d757600080fd5b806301ffc9a71461011b57806306fdde0314610143578063095ea7b31461015857806318160ddd1461016b575b600080fd5b61012e610129366004610942565b6102cf565b60405190151581526020015b60405180910390f35b61014b610306565b60405161013a9190610973565b61012e6101663660046109dd565b610398565b6002545b60405190815260200161013a565b61012e61018b366004610a07565b6103b0565b61016f61019e366004610a44565b60009081526005602052604090206001015490565b6101c66101c1366004610a5d565b6103d4565b005b6040516012815260200161013a565b6101c66101e5366004610a5d565b6103ff565b6101c66101f83660046109dd565b610437565b61016f61020b366004610a89565b6001600160a01b031660009081526020819052604090205490565b61012e610234366004610a5d565b61046b565b61014b610496565b61016f600081565b61012e6102573660046109dd565b6104a5565b61016f7f9f2df0fed2c77648de5860a4cc508cd0818c85b8b8a1ab4ceeef8d981c8956a681565b6101c6610291366004610a5d565b6104b3565b61016f6102a4366004610aa4565b6001600160a01b03918216600090815260016020908152604080832093909416825291909152205490565b60006001600160e01b03198216637965db0b60e01b148061030057506301ffc9a760e01b6001600160e01b03198316145b92915050565b60606003805461031590610ace565b80601f016020809104026020016040519081016040528092919081815260200182805461034190610ace565b801561038e5780601f106103635761010080835404028352916020019161038e565b820191906000526020600020905b81548152906001019060200180831161037157829003601f168201915b5050505050905090565b6000336103a68185856104d8565b5060019392505050565b6000336103be8582856104e5565b6103c9858585610563565b506001949350505050565b6000828152600560205260409020600101546103ef816105c2565b6103f983836105cf565b50505050565b6001600160a01b03811633146104285760405163334bd91960e11b815260040160405180910390fd5b6104328282610663565b505050565b7f9f2df0fed2c77648de5860a4cc508cd0818c85b8b8a1ab4ceeef8d981c8956a6610461816105c2565b61043283836106d0565b60009182526005602090815260408084206001600160a01b0393909316845291905290205460ff1690565b60606004805461031590610ace565b6000336103a6818585610563565b6000828152600560205260409020600101546104ce816105c2565b6103f98383610663565b610432838383600161070a565b6001600160a01b038381166000908152600160209081526040808320938616835292905220546000198110156103f9578181101561055457604051637dc7a0d960e11b81526001600160a01b038416600482015260248101829052604481018390526064015b60405180910390fd5b6103f98484848403600061070a565b6001600160a01b03831661058d57604051634b637e8f60e11b81526000600482015260240161054b565b6001600160a01b0382166105b75760405163ec442f0560e01b81526000600482015260240161054b565b6104328383836107df565b6105cc8133610909565b50565b60006105db838361046b565b61065b5760008381526005602090815260408083206001600160a01b03861684529091529020805460ff191660011790556106133390565b6001600160a01b0316826001600160a01b0316847f2f8788117e7eff1d82e926ec794901d17c78024a50270940304540a733656f0d60405160405180910390a4506001610300565b506000610300565b600061066f838361046b565b1561065b5760008381526005602090815260408083206001600160a01b0386168085529252808320805460ff1916905551339286917ff6391f5c32d9c69d2a47ea670b442974b53935d1edc7fd64eb21e047a839171b9190a4506001610300565b6001600160a01b0382166106fa5760405163ec442f0560e01b81526000600482015260240161054b565b610706600083836107df565b5050565b6001600160a01b0384166107345760405163e602df0560e01b81526000600482015260240161054b565b6001600160a01b03831661075e57604051634a1406b160e11b81526000600482015260240161054b565b6001600160a01b03808516600090815260016020908152604080832093871683529290522082905580156103f957826001600160a01b0316846001600160a01b03167f8c5be1e5ebec7d5bd14f71427d1e84f3dd0314c0f7b2291e5b200ac8c7c3b925846040516107d191815260200190565b60405180910390a350505050565b6001600160a01b03831661080a5780600260008282546107ff9190610b08565b9091555061087c9050565b6001600160a01b0383166000908152602081905260409020548181101561085d5760405163391434e360e21b81526001600160a01b0385166004820152602481018290526044810183905260640161054b565b6001600160a01b03841660009081526020819052604090209082900390555b6001600160a01b038216610898576002805482900390556108b7565b6001600160a01b03821660009081526020819052604090208054820190555b816001600160a01b0316836001600160a01b03167fddf252ad1be2c89b69c2b068fc378daa952ba7f163c4a11628f55a4df523b3ef836040516108fc91815260200190565b60405180910390a3505050565b610913828261046b565b6107065760405163e2517d3f60e01b81526001600160a01b03821660048201526024810183905260440161054b565b60006020828403121561095457600080fd5b81356001600160e01b03198116811461096c57600080fd5b9392505050565b602081526000825180602084015260005b818110156109a15760208186018101516040868401015201610984565b506000604082850101526040601f19601f83011684010191505092915050565b80356001600160a01b03811681146109d857600080fd5b919050565b600080604083850312156109f057600080fd5b6109f9836109c1565b946020939093013593505050565b600080600060608486031215610a1c57600080fd5b610a25846109c1565b9250610a33602085016109c1565b929592945050506040919091013590565b600060208284031215610a5657600080fd5b5035919050565b60008060408385031215610a7057600080fd5b82359150610a80602084016109c1565b90509250929050565b600060208284031215610a9b57600080fd5b61096c826109c1565b60008060408385031215610ab757600080fd5b610ac0836109c1565b9150610a80602084016109c1565b600181811c90821680610ae257607f821691505b602082108103610b0257634e487b7160e01b600052602260045260246000fd5b50919050565b8082018082111561030057634e487b7160e01b600052601160045260246000fdfea2646970667358221220471c0a162655b15e13153d6669d295db0632c47dc6d2fe45233ea0179d3f021964736f6c634300081c0033",
  "linkReferences": {},
  "deployedLinkReferences": {}
}